:1000000005308A00BD2D00005C3084008313000899
:10001000031917280630F800F701F70B0D28F80B25
:100020000C287B30F700F70B1328800B0A280800F8
:100030008316880183123308880083160611831201
:1000400006110130DC000420831606118312061508
:100050008316880183123408880083168611831260
:1000600086110130DC000420831686118312861568
:1000700083168801831235088800831606128312BE
:1000800006120130DC0004208316061283120616C5
:10009000831688018312360888008316861083121F
:1000A00086100130DC00042083168610831286142B
:1000B00083168801831237088800831686128312FC
:1000C00086120130DC000420831686128312861605
:1000D000831688018312380888008316051083125E
:1000E00005100130DC00042083160510831205146E
:1000F00083168801831239088800831685108312BD
:1001000085100130DC0004208316851083128514CD
:100110008316880183123A0888008316061083121A
:1001200006100130DC00042083160610831206142A
:100130000800DB015A085B020318A1281820DB0A1B
:100140009A2808008318A728563084008313F701E3
:10015000F801F901FA01D601D701D801D9015508F2
:100160005404530452040319E5282030DA00031024
:10017000CE0DCF0DD00DD10DD60DD70DD80DD90D7B
:1001800055085902031DCE2854085802031DCE28D5
:1001900053085702031DCE2852085602031CDF28BD
:1001A0005208D6025308031C530FD7025408031CED
:1001B000540FD8025508031C550FD9020314F70D2C
:1001C000F80DF90DFA0DDA0BB72856088000840AED
:1001D00057088000840A58088000840A5908800063
:1001E00008004A084B068039CD00CA1FF928CA0901
:1001F000CA0ACB1FFD28CB09CB0A4B08F8014A02DB
:10020000031805294A08F7001129F7010830CC0026
:10021000CA0DF70D4B0877020318F700F80DCC0B49
:100220000829CD1F1529F809F80A0800A008031DA0
:10023000B02BA108031DB02BA208031DB02BA308EF
:10024000031DB02BCA01CB01CC01CD01CE01831619
:100250000710831207146330F700F70B2D2930299C
:1002600007100330DA00992007148316071463304F
:10027000F700F70B39293C298312071C432900306A
:10028000F80093294529071C43296330F700F70B31
:1002900047294A29071850290030F8009329522984
:1002A00007185029D0015008043C031C7D29CF01B8
:1002B0004F08073C031C7B29071C5C295330F700BF
:1002C000F70B6029071C79294A30500784008313F3
:1002D0004F08073CF8000130F700F80803197429AB
:1002E0000310F70DF80B7029770800048000071839
:1002F0007729CF0A5829D00A53294B084A074C07B7
:100300004D07D1004E085102031989290030F80029
:1003100093294C08BB004D08BC004A08BD004B089F
:10032000BE000130F800780BAF2BFA01CA013C087F
:100330004A07BF003B08C000003003180130C00767
:10034000C1010318C10AC20183104208D10041084B
:10035000D0004008CF003F08CE00D501D401D30122
:100360000A30D200A2207A08C2007908C1007808B9
:10037000C0007708BF00FA01CA013E084A07C3005F
:100380003D08C400003003180130C407C50103183C
:10039000C50AC60183104608D1004508D0004408AC
:1003A000CF004308CE00D501D401D3010A30D200DA
:1003B000A2207A08C6007908C5007808C40077082A
:1003C000C3004708F700F801F901FA01F71FEB290C
:1003D000F803F903FA03FA1B032A7A084202031C02
:1003E000852A031D032A79084102031C852A031D5F
:1003F000032A78084002031C852A031D032A3F08AC
:1004000077020318852A83104208D1004108D000E2
:100410004008CF003F08CE00D501D401D3010A30F7
:10042000D200A2202830770784008313781883171E
:100430000008B30083144A30840083134208D100BB
:100440004108D0004008CF003F08CE00D501D401BC
:10045000D3010A30D200A22028304A078400831337
:100460004B1883170008B4009C30B500C630B600A6
:100470004708CA000A30CB00F120283078078400F2
:1004800083130008B7004708CA000A30CB00F120E8
:1004900028307707840083130008B8009C30B90027
:1004A000C630BA00C9104908831687008312871422
:1004B0004911490883168700831207118316051115
:1004C00083120515C9114908831687008312871501
:1004D0004912490883168700831207124130DA0057
:1004E00099208316051183120511C9114908831635
:1004F00087008312871149124908831687008312E7
:1005000007124130DA009920AF2B4808F700F801B4
:10051000F901FA01F71F8F2AF803F903FA03FA1B0E
:10052000292B46087A02031C292B031DA72A4508FC
:100530007902031C292B031DA72A44087802031CF7
:10054000292B031DA72A770843020318292B8310A0
:100550004608D1004508D0004408CF004308CE002B
:10056000D501D401D3010A30D200A2202830770768
:1005700084008313781883170008B30083144A306B
:10058000840083134608D1004508D0004408CF00FA
:100590004308CE00D501D401D3010A30D200A220F5
:1005A00028304A07840083134B1883170008B400CF
:1005B000AF30B5008930B6004808CA000A30CB0019
:1005C000F12028307807840083130008B70048081A
:1005D000CA000A30CB00F12028307707840083134B
:1005E0000008B800AF30B9008930BA004911490895
:1005F0008316870083120715C910490883168700E0
:1006000083128710831605118312051549124908B4
:100610008316870083120716C911490883168700BD
:10062000831287114130DA00992083160511831255
:100630000511491249088316870083120712C91150
:10064000490883168700831287114130DA00992008
:10065000AF2BC910490883168700831287104911F0
:100660004908831687008312071183160511831228
:100670000511491249088316870083120712C91110
:100680004908831687008312871183104208D1001E
:100690004108D0004008CF003F08CE00D501D4016A
:1006A000D3010A30D200A2202830770784008313B8
:1006B000781883170008B30083144A30840083132A
:1006C0004208D1004108D0004008CF003F08CE00CA
:1006D000D501D401D3010A30D200A22028304A0724
:1006E000840083134B1883170008B4009C30B500B6
:1006F000C630B60083104608D1004508D000440833
:10070000CF004308CE00D501D401D3010A30D20076
:10071000A2202830770784008313781883170008F5
:10072000B70083144A30840083134608D10045087B
:10073000D0004408CF004308CE00D501D401D30136
:100740000A30D200A22028304A07840083134B18B5
:1007500083170008B800AF30B9008930BA000B2CFD
:10076000200BDD2BA108031DDD2BA208031DDD2BB3
:10077000A308031DDD2B2D08B3008630B400470805
:10078000CA000A30CB00F120283078078400831398
:100790000008B5004708CA000A30CB00F120283015
:1007A0007707840083130008B6009C30B700C6307A
:1007B000B800FF30B900BA000B2C2008023C031D22
:1007C0000B2CA108031D0B2CA208031D0B2CA30846
:1007D000031D0B2C2D08B3008930B4004808CA0053
:1007E0000A30CB00F12028307807840083130008FA
:1007F000B5004808CA000A30CB00F120283077073E
:10080000840083130008B600AF30B7008930B80009
:10081000FF30B900BA0008008316891483128918C2
:10082000B42C1820182018208316891483128918D4
:10083000B42CA008031D662CA108031D662CA20879
:10084000031D662CA308031D662CA701A601A501A4
:10085000A4010130A4070318A50A0319A60A031965
:10086000A70A18208316891483128918472CA70811
:10087000031D472CA608031D472C2508023C031C1A
:10088000472C031D292C2408703C0318292CA70889
:10089000031D582CA608031D582C2508013C0318DD
:1008A000652CFF3A031D582C2408583C0318652C6E
:1008B000A301A201A1010130A00016218316891411
:1008C00083128918652C18205E2CB42C200B7F2CE9
:1008D000A108031D7F2CA208031D7F2CA308031D64
:1008E0007F2CA301A201A1010230A00016218316D2
:1008F0008914831289187E2C1820772CB42C200898
:10090000023C031DB42CA108031DB42CA208031D36
:10091000B42CA308031DB42CA301A201A101A001C2
:1009200083160511831205150F30DA0099208316FE
:100930000511831205110F30DA0099208316051175
:10094000831205150F30DA009920831605118312E2
:1009500005110F30DA0099201621831689148312AD
:100960008918B42C1820AD2C8A110A12132E831664
:100970000914831209183C2D0330DA0099208316DC
:100980000914831209183C2D200BFF2CA108031D0C
:10099000FF2CA208031DFF2CA308031DFF2CC70A70
:1009A0001E30DA009920C71BDB2C4708503C031887
:1009B000DB2C5030C7000B08F7008B1301300317F6
:1009C0008D000313470803178C0083168C130C1536
:1009D00055308D00AA308D008C148C18ED2C0C1124
:1009E0007708831203138B04013003178D008316DD
:1009F0008C130C1483120C080313C700382D200825
:100A0000023C031D382DA108031D382DA208031D2B
:100A1000382DA308031D382DC80AC81B152D4808FA
:100A2000633C0318152D6330C8000B08F7008B13C7
:100A3000023003178D000313480803178C00831638
:100A40008C130C1555308D00AA308D008C148C1829
:100A5000272D0C117708831203138B040230031720
:100A60008D0083168C130C1483120C080313C8001A
:100A700016210A30DA0099208A110A12142E8316E0
:100A8000091583120919BA2D0330DA00992083164B
:100A9000091583120919BA2D200B822DA108031DF7
:100AA000822DA208031D822DA308031D822DC703DA
:100AB0001E30DA009920C71F5E2DC7010B08F70012
:100AC0008B13013003178D000313470803178C00A5
:100AD00083168C130C1555308D00AA308D008C14A4
:100AE0008C18702D0C117708831203138B040130BE
:100AF00003178D0083168C130C1483120C08031338
:100B0000C700B62D2008023C031DB62DA108031D09
:100B1000B62DA208031DB62DA308031DB62DC803CC
:100B2000C81F932DC8010B08F7008B130230031761
:100B30008D000313480803178C0083168C130C15C3
:100B400055308D00AA308D008C148C18A52D0C11F9
:100B50007708831203138B04023003178D0083166A
:100B60008C130C1483120C080313C80016210A30CE
:100B7000DA0099208A110A12152E03081F39830002
:100B8000FF30C90083161F149F141F159F110730D3
:100B90009C008313C0308312A800F930A900A43050
:100BA000AA00B030AB009930AC009230AD0082307A
:100BB000AE00F830AF008030B0009030B100FF30B0
:100BC000B20000308316880087008312C9008316A4
:100BD000091489140915831216211820A301A201F2
:100BE000A101A001C910490883168700831287104C
:100BF0004911490883168700831207110130031732
:100C00008D0083168C130C1483120C080313C70079
:100C1000023003178D0083168C130C1483120C08FA
:100C20000313C8000C2CB72C3F2D16211820122EB0
:020C300063005F
:02400E00723FFF
:00000001FF
;PIC16F877A
;CRC=EC2A  CREATED="09-Jun-23 19:43"
